:100000000C9434000C9451000C9451000C94510049
:100010000C9451000C9451000C9451000C9451001C
:100020000C9451000C9451000C9451000C9451000C
:100030000C9451000C9451000C9451000C945100FC
:100040000C9453000C9451000C9451000C945100EA
:100050000C9451000C9451000C9451000C945100DC
:100060000C9451000C94510011241FBECFEFD8E026
:10007000DEBFCDBF12E0A0E0B1E0E8EAF3E002C0ED
:1000800005900D92A230B107D9F722E0A2E0B2E0CC
:1000900001C01D92A435B207E1F70E9491000C94B3
:1000A000D2010C9400001F920F9200905F000F92FB
:1000B00011242F933F934F935F936F937F938F936D
:1000C0009F93AF93BF93EF93FF93CF93DF931F92D1
:1000D000CDB7DEB78091000189838FEF8093000157
:1000E000789440E061E082E00E946601F8948981A2
:1000F000809300010E940B010F90DF91CF91FF913F
:10010000EF91BF91AF919F918F917F916F915F918F
:100110004F913F912F910F9000925F000F901F9091
:100120001895EF920F93CF93DF9300D000D0CDB707
:10013000DEB79A8389837C836B8385E490E025E036
:10014000FC01208385E390E021E0FC0120838EE622
:1001500090E021E0FC01208384E290E024E230E0A2
:10016000F90120812062FC012083E12C00E022E0E3
:1001700042E052E062E08FEA91E00E94D3000E94E8
:100180005D0180E090E00F900F900F900F90DF9155
:10019000CF910F91EF900895CF93DF93CDB7DEB756
:1001A000DF91CF910895EF920F93FC01802F9E2D48
:1001B00070E06150710939E0369FD001379FB00D72
:1001C0001124A55FBD4F1196FC93EE9313965C939B
:1001D0004E93129714962C93149715961C9215977C
:1001E00016961C92169717961C92179721E001C03D
:1001F000220F6A95EAF718962C9309950F91EF90C4
:100200000895982FF89480910001891710F4909325
:10021000000178940895CF93DF93D0910001C9E055
:1002200080910A02E82FF0E0EF5FFE4F5081D51772
:1002300008F03EC0252F30E021503109C29FF00167
:10024000C39FF00D1124E55FFD4F968162814381CC
:10025000A62FB42FA90FB11DA90FB11D6D917C91CF
:100260009F5F96834481941301C01682C29FF00160
:10027000C39FF00D1124E55FFD4F47814150478337
:10028000411105C090859095982390930A02509350
:1002900000017894C29FF001C39FF00D1124E55F27
:1002A000FD4F0190F081E02DCB010995F894B8CF76
:1002B000D0930001DF91CF910895F894109200013E
:1002C0000E940B0178940E94CC00FDCFCF9390E068
:1002D0000197F89429E0289FF001299FF00D11243F
:1002E000E55FFD4F37815481351750F52581C28177
:1002F0007381AC2FB72FA20FB11DA20FB11D6C934C
:1003000011964C932F5F251711F0258301C015829C
:1003100021E0230F39E0389FF001399FF00D1124BF
:10032000E55FFD4F2783213041F490910A028085DB
:10033000892B80930A020E940B01789481E002C00D
:10034000789480E0CF910895F894909100018917F6
:1003500020F4809300010E940B017894089580910D
:100360005302811104C095B180E2892785B980913B
:1003700053028F5F8093530208952FEF85EA9EE02A
:10038000215080409040E1F700C000002D9A2FEFEF
:1003900085EA9EE0215080409040E1F700C00000D7
:0803A0002D980895F894FFCF99
:1003A800FF00010202030303030404040404040419
:1003B80004050505050505050505050505050505E6
:1003C80005060606060606060606060606060606C6
:1003D80006060606060606060606060606060606B5
:1003E8000607070707070707070707070707070796
:1003F8000707070707070707070707070707070785
:100408000707070707070707070707070707070774
:100418000707070707070707070707070707070764
:100428000708080808080808080808080808080845
:100438000808080808080808080808080808080834
:100448000808080808080808080808080808080824
:100458000808080808080808080808080808080814
:100468000808080808080808080808080808080804
:1004780008080808080808080808080808080808F4
:1004880008080808080808080808080808080808E4
:1004980008080808080808080808080808080808D4
:0204A80008004A
:00000001FF
